{
  "contractName": "CryptoZombies",
  "abi": [
    {
      "anonymous": false,
      "inputs": [
        {
          "indexed": true,
          "internalType": "address",
          "name": "owner",
          "type": "address"
        },
        {
          "indexed": true,
          "internalType": "address",
          "name": "approved",
          "type": "address"
        },
        {
          "indexed": true,
          "internalType": "uint256",
          "name": "tokenId",
          "type": "uint256"
        }
      ],
      "name": "Approval",
      "type": "event"
    },
    {
      "anonymous": false,
      "inputs": [
        {
          "indexed": true,
          "internalType": "address",
          "name": "owner",
          "type": "address"
        },
        {
          "indexed": true,
          "internalType": "address",
          "name": "operator",
          "type": "address"
        },
        {
          "indexed": false,
          "internalType": "bool",
          "name": "approved",
          "type": "bool"
        }
      ],
      "name": "ApprovalForAll",
      "type": "event"
    },
    {
      "anonymous": false,
      "inputs": [
        {
          "indexed": false,
          "internalType": "uint256",
          "name": "zombieId",
          "type": "uint256"
        },
        {
          "indexed": false,
          "internalType": "string",
          "name": "name",
          "type": "string"
        },
        {
          "indexed": false,
          "internalType": "uint256",
          "name": "dna",
          "type": "uint256"
        },
        {
          "indexed": false,
          "internalType": "address",
          "name": "owner",
          "type": "address"
        }
      ],
      "name": "NewZombie",
      "type": "event"
    },
    {
      "anonymous": false,
      "inputs": [
        {
          "indexed": true,
          "internalType": "address",
          "name": "previousOwner",
          "type": "address"
        },
        {
          "indexed": true,
          "internalType": "address",
          "name": "newOwner",
          "type": "address"
        }
      ],
      "name": "OwnershipTransferred",
      "type": "event"
    },
    {
      "anonymous": false,
      "inputs": [
        {
          "indexed": true,
          "internalType": "address",
          "name": "from",
          "type": "address"
        },
        {
          "indexed": true,
          "internalType": "address",
          "name": "to",
          "type": "address"
        },
        {
          "indexed": true,
          "internalType": "uint256",
          "name": "tokenId",
          "type": "uint256"
        }
      ],
      "name": "Transfer",
      "type": "event"
    },
    {
      "inputs": [
        {
          "internalType": "address",
          "name": "to",
          "type": "address"
        },
        {
          "internalType": "uint256",
          "name": "tokenId",
          "type": "uint256"
        }
      ],
      "name": "approve",
      "outputs": [],
      "stateMutability": "nonpayable",
      "type": "function"
    },
    {
      "inputs": [
        {
          "internalType": "uint256",
          "name": "_zombieId",
          "type": "uint256"
        },
        {
          "internalType": "uint256",
          "name": "_targetId",
          "type": "uint256"
        }
      ],
      "name": "attack",
      "outputs": [],
      "stateMutability": "nonpayable",
      "type": "function"
    },
    {
      "inputs": [
        {
          "internalType": "address",
          "name": "owner",
          "type": "address"
        }
      ],
      "name": "balanceOf",
      "outputs": [
        {
          "internalType": "uint256",
          "name": "",
          "type": "uint256"
        }
      ],
      "stateMutability": "view",
      "type": "function",
      "constant": true
    },
    {
      "inputs": [
        {
          "internalType": "uint256",
          "name": "_zombieId",
          "type": "uint256"
        },
        {
          "internalType": "uint256",
          "name": "_newDna",
          "type": "uint256"
        }
      ],
      "name": "changeDna",
      "outputs": [],
      "stateMutability": "nonpayable",
      "type": "function"
    },
    {
      "inputs": [
        {
          "internalType": "uint256",
          "name": "_zombieId",
          "type": "uint256"
        },
        {
          "internalType": "string",
          "name": "_newName",
          "type": "string"
        }
      ],
      "name": "changeName",
      "outputs": [],
      "stateMutability": "nonpayable",
      "type": "function"
    },
    {
      "inputs": [
        {
          "internalType": "uint256",
          "name": "zombieId",
          "type": "uint256"
        }
      ],
      "name": "checkZombieToOwner",
      "outputs": [
        {
          "internalType": "address",
          "name": "",
          "type": "address"
        }
      ],
      "stateMutability": "view",
      "type": "function",
      "constant": true
    },
    {
      "inputs": [
        {
          "internalType": "string",
          "name": "_name",
          "type": "string"
        }
      ],
      "name": "createRandomZombie",
      "outputs": [
        {
          "internalType": "uint256",
          "name": "",
          "type": "uint256"
        }
      ],
      "stateMutability": "nonpayable",
      "type": "function"
    },
    {
      "inputs": [
        {
          "internalType": "uint256",
          "name": "_zombieId",
          "type": "uint256"
        },
        {
          "internalType": "uint256",
          "name": "_kittyId",
          "type": "uint256"
        }
      ],
      "name": "feedOnKitty",
      "outputs": [],
      "stateMutability": "nonpayable",
      "type": "function"
    },
    {
      "inputs": [
        {
          "internalType": "uint256",
          "name": "tokenId",
          "type": "uint256"
        }
      ],
      "name": "getApproved",
      "outputs": [
        {
          "internalType": "address",
          "name": "",
          "type": "address"
        }
      ],
      "stateMutability": "view",
      "type": "function",
      "constant": true
    },
    {
      "inputs": [
        {
          "internalType": "address",
          "name": "_owner",
          "type": "address"
        }
      ],
      "name": "getZombiesByOwner",
      "outputs": [
        {
          "internalType": "uint256[]",
          "name": "",
          "type": "uint256[]"
        }
      ],
      "stateMutability": "view",
      "type": "function",
      "constant": true
    },
    {
      "inputs": [],
      "name": "getZombiesLength",
      "outputs": [
        {
          "internalType": "uint256",
          "name": "",
          "type": "uint256"
        }
      ],
      "stateMutability": "view",
      "type": "function",
      "constant": true
    },
    {
      "inputs": [
        {
          "internalType": "address",
          "name": "owner",
          "type": "address"
        },
        {
          "internalType": "address",
          "name": "operator",
          "type": "address"
        }
      ],
      "name": "isApprovedForAll",
      "outputs": [
        {
          "internalType": "bool",
          "name": "",
          "type": "bool"
        }
      ],
      "stateMutability": "view",
      "type": "function",
      "constant": true
    },
    {
      "inputs": [
        {
          "internalType": "uint256",
          "name": "_zombieId",
          "type": "uint256"
        }
      ],
      "name": "levelUp",
      "outputs": [],
      "stateMutability": "payable",
      "type": "function",
      "payable": true
    },
    {
      "inputs": [],
      "name": "name",
      "outputs": [
        {
          "internalType": "string",
          "name": "",
          "type": "string"
        }
      ],
      "stateMutability": "view",
      "type": "function",
      "constant": true
    },
    {
      "inputs": [],
      "name": "owner",
      "outputs": [
        {
          "internalType": "address",
          "name": "",
          "type": "address"
        }
      ],
      "stateMutability": "view",
      "type": "function",
      "constant": true
    },
    {
      "inputs": [
        {
          "internalType": "uint256",
          "name": "tokenId",
          "type": "uint256"
        }
      ],
      "name": "ownerOf",
      "outputs": [
        {
          "internalType": "address",
          "name": "",
          "type": "address"
        }
      ],
      "stateMutability": "view",
      "type": "function",
      "constant": true
    },
    {
      "inputs": [],
      "name": "renounceOwnership",
      "outputs": [],
      "stateMutability": "nonpayable",
      "type": "function"
    },
    {
      "inputs": [
        {
          "internalType": "address",
          "name": "from",
          "type": "address"
        },
        {
          "internalType": "address",
          "name": "to",
          "type": "address"
        },
        {
          "internalType": "uint256",
          "name": "tokenId",
          "type": "uint256"
        }
      ],
      "name": "safeTransferFrom",
      "outputs": [],
      "stateMutability": "nonpayable",
      "type": "function"
    },
    {
      "inputs": [
        {
          "internalType": "address",
          "name": "from",
          "type": "address"
        },
        {
          "internalType": "address",
          "name": "to",
          "type": "address"
        },
        {
          "internalType": "uint256",
          "name": "tokenId",
          "type": "uint256"
        },
        {
          "internalType": "bytes",
          "name": "_data",
          "type": "bytes"
        }
      ],
      "name": "safeTransferFrom",
      "outputs": [],
      "stateMutability": "nonpayable",
      "type": "function"
    },
    {
      "inputs": [
        {
          "internalType": "address",
          "name": "operator",
          "type": "address"
        },
        {
          "internalType": "bool",
          "name": "approved",
          "type": "bool"
        }
      ],
      "name": "setApprovalForAll",
      "outputs": [],
      "stateMutability": "nonpayable",
      "type": "function"
    },
    {
      "inputs": [
        {
          "internalType": "address",
          "name": "_address",
          "type": "address"
        }
      ],
      "name": "setKittyContractAddress",
      "outputs": [],
      "stateMutability": "nonpayable",
      "type": "function"
    },
    {
      "inputs": [
        {
          "internalType": "uint256",
          "name": "_fee",
          "type": "uint256"
        }
      ],
      "name": "setLevelUpFee",
      "outputs": [],
      "stateMutability": "nonpayable",
      "type": "function"
    },
    {
      "inputs": [
        {
          "internalType": "bytes4",
          "name": "interfaceId",
          "type": "bytes4"
        }
      ],
      "name": "supportsInterface",
      "outputs": [
        {
          "internalType": "bool",
          "name": "",
          "type": "bool"
        }
      ],
      "stateMutability": "view",
      "type": "function",
      "constant": true
    },
    {
      "inputs": [],
      "name": "symbol",
      "outputs": [
        {
          "internalType": "string",
          "name": "",
          "type": "string"
        }
      ],
      "stateMutability": "view",
      "type": "function",
      "constant": true
    },
    {
      "inputs": [
        {
          "internalType": "uint256",
          "name": "tokenId",
          "type": "uint256"
        }
      ],
      "name": "tokenURI",
      "outputs": [
        {
          "internalType": "string",
          "name": "",
          "type": "string"
        }
      ],
      "stateMutability": "view",
      "type": "function",
      "constant": true
    },
    {
      "inputs": [
        {
          "internalType": "address",
          "name": "from",
          "type": "address"
        },
        {
          "internalType": "address",
          "name": "to",
          "type": "address"
        },
        {
          "internalType": "uint256",
          "name": "tokenId",
          "type": "uint256"
        }
      ],
      "name": "transferFrom",
      "outputs": [],
      "stateMutability": "nonpayable",
      "type": "function"
    },
    {
      "inputs": [
        {
          "internalType": "address",
          "name": "newOwner",
          "type": "address"
        }
      ],
      "name": "transferOwnership",
      "outputs": [],
      "stateMutability": "nonpayable",
      "type": "function"
    },
    {
      "inputs": [],
      "name": "withdraw",
      "outputs": [],
      "stateMutability": "nonpayable",
      "type": "function"
    },
    {
      "inputs": [
        {
          "internalType": "uint256",
          "name": "",
          "type": "uint256"
        }
      ],
      "name": "zombies",
      "outputs": [
        {
          "internalType": "string",
          "name": "name",
          "type": "string"
        },
        {
          "internalType": "uint256",
          "name": "dna",
          "type": "uint256"
        },
        {
          "internalType": "uint32",
          "name": "level",
          "type": "uint32"
        },
        {
          "internalType": "uint32",
          "name": "readyTime",
          "type": "uint32"
        },
        {
          "internalType": "uint16",
          "name": "winCount",
          "type": "uint16"
        },
        {
          "internalType": "uint16",
          "name": "lossCount",
          "type": "uint16"
        },
        {
          "internalType": "uint16",
          "name": "price",
          "type": "uint16"
        }
      ],
      "stateMutability": "view",
      "type": "function",
      "constant": true
    }
  ],
  "bytecode": "0x60806040526010600955600954600a6200001a919062000415565b600a5562015180600b55655af3107a4000600e556000600f55603c6010553480156200004557600080fd5b506040518060400160405280600a81526020017f5a6f6d6269654974656d000000000000000000000000000000000000000000008152506040518060400160405280600381526020017f5a544d0000000000000000000000000000000000000000000000000000000000815250620000d2620000c66200010c60201b60201c565b6200011460201b60201c565b8160019080519060200190620000ea929190620001d8565b50806002908051906020019062000103929190620001d8565b505050620004ca565b600033905090565b60008060009054906101000a900473ffffffffffffffffffffffffffffffffffffffff169050816000806101000a81548173ffffffffffffffffffffffffffffffffffffffff021916908373ffffffffffffffffffffffffffffffffffffffff1602179055508173ffffffffffffffffffffffffffffffffffffffff168173ffffffffffffffffffffffffffffffffffffffff167f8be0079c531659141344cd1fd0a4f28419497f9722a3daafe3b4186f6b6457e060405160405180910390a35050565b828054620001e69062000495565b90600052602060002090601f0160209004810192826200020a576000855562000256565b82601f106200022557805160ff191683800117855562000256565b8280016001018555821562000256579182015b828111156200025557825182559160200191906001019062000238565b5b50905062000265919062000269565b5090565b5b80821115620002845760008160009055506001016200026a565b5090565b7f4e487b7100000000000000000000000000000000000000000000000000000000600052601160045260246000fd5b60008160011c9050919050565b6000808291508390505b60018511156200031657808604811115620002ee57620002ed62000288565b5b6001851615620002fe5780820291505b80810290506200030e85620002b7565b9450620002ce565b94509492505050565b60008262000331576001905062000404565b8162000341576000905062000404565b81600181146200035a576002811462000365576200039b565b600191505062000404565b60ff8411156200037a576200037962000288565b5b8360020a91508482111562000394576200039362000288565b5b5062000404565b5060208310610133831016604e8410600b8410161715620003d55782820a905083811115620003cf57620003ce62000288565b5b62000404565b620003e48484846001620002c4565b92509050818404811115620003fe57620003fd62000288565b5b81810290505b9392505050565b6000819050919050565b600062000422826200040b565b91506200042f836200040b565b92506200045e7fffffffffffffffffffffffffffffffffffffffffffffffffffffffffffffffff84846200031f565b905092915050565b7f4e487b7100000000000000000000000000000000000000000000000000000000600052602260045260246000fd5b60006002820490506001821680620004ae57607f821691505b602082108103620004c457620004c362000466565b5b50919050565b6147b480620004da6000396000f3fe6080604052600436106101c25760003560e01c80636352211e116100f7578063a22cb46511610095578063ccf670f811610064578063ccf670f814610659578063e1fa763814610682578063e985e9c5146106ab578063f2fde38b146106e8576101c2565b8063a22cb465146105a1578063b88d4fde146105ca578063c39cbef1146105f3578063c87b56dd1461061c576101c2565b80637bff0a01116100d15780637bff0a01146104e35780638da5cb5b1461052057806395d89b411461054b5780639d8245b114610576576101c2565b80636352211e1461045257806370a082311461048f578063715018a6146104cc576101c2565b806323b872dd116101645780634412e1041161013e5780634412e104146103865780634c0ce559146103c35780635f4623f1146104005780635faf288014610429576101c2565b806323b872dd1461031d5780633ccfd60b1461034657806342842e0e1461035d576101c2565b8063095ea7b3116101a0578063095ea7b31461026c5780630ce90ec21461029557806317a7f4cc146102b15780632052465e146102da576101c2565b806301ffc9a7146101c757806306fdde0314610204578063081812fc1461022f575b600080fd5b3480156101d357600080fd5b506101ee60048036038101906101e99190612e1c565b610711565b6040516101fb9190612e64565b60405180910390f35b34801561021057600080fd5b506102196107f3565b6040516102269190612f18565b60405180910390f35b34801561023b57600080fd5b5061025660048036038101906102519190612f70565b610885565b6040516102639190612fde565b60405180910390f35b34801561027857600080fd5b50610293600480360381019061028e9190613025565b61090a565b005b6102af60048036038101906102aa9190612f70565b610a21565b005b3480156102bd57600080fd5b506102d860048036038101906102d39190613065565b610a95565b005b3480156102e657600080fd5b5061030160048036038101906102fc9190612f70565b610bb3565b60405161031497969594939291906130f0565b60405180910390f35b34801561032957600080fd5b50610344600480360381019061033f9190613166565b610cd7565b005b34801561035257600080fd5b5061035b610d37565b005b34801561036957600080fd5b50610384600480360381019061037f9190613166565b610e09565b005b34801561039257600080fd5b506103ad60048036038101906103a891906131b9565b610e29565b6040516103ba91906132a4565b60405180910390f35b3480156103cf57600080fd5b506103ea60048036038101906103e59190612f70565b610f19565b6040516103f79190612fde565b60405180910390f35b34801561040c57600080fd5b50610427600480360381019061042291906131b9565b610f2b565b005b34801561043557600080fd5b50610450600480360381019061044b9190613065565b610feb565b005b34801561045e57600080fd5b5061047960048036038101906104749190612f70565b6110a8565b6040516104869190612fde565b60405180910390f35b34801561049b57600080fd5b506104b660048036038101906104b191906131b9565b611159565b6040516104c391906132c6565b60405180910390f35b3480156104d857600080fd5b506104e1611210565b005b3480156104ef57600080fd5b5061050a60048036038101906105059190613416565b611298565b60405161051791906132c6565b60405180910390f35b34801561052c57600080fd5b5061053561132d565b6040516105429190612fde565b60405180910390f35b34801561055757600080fd5b50610560611356565b60405161056d9190612f18565b60405180910390f35b34801561058257600080fd5b5061058b6113e8565b60405161059891906132c6565b60405180910390f35b3480156105ad57600080fd5b506105c860048036038101906105c3919061348b565b6113f9565b005b3480156105d657600080fd5b506105f160048036038101906105ec919061356c565b61140f565b005b3480156105ff57600080fd5b5061061a600480360381019061061591906135ef565b611471565b005b34801561062857600080fd5b50610643600480360381019061063e9190612f70565b61153e565b6040516106509190612f18565b60405180910390f35b34801561066557600080fd5b50610680600480360381019061067b9190612f70565b61168f565b005b34801561068e57600080fd5b506106a960048036038101906106a49190613065565b611715565b005b3480156106b757600080fd5b506106d260048036038101906106cd919061364b565b611946565b6040516106df9190612e64565b60405180910390f35b3480156106f457600080fd5b5061070f600480360381019061070a91906131b9565b6119da565b005b60007f80ac58cd000000000000000000000000000000000000000000000000000000007bffffffffffffffffffffffffffffffffffffffffffffffffffffffff1916827bffffffffffffffffffffffffffffffffffffffffffffffffffffffff191614806107dc57507f5b5e139f000000000000000000000000000000000000000000000000000000007bffffffffffffffffffffffffffffffffffffffffffffffffffffffff1916827bffffffffffffffffffffffffffffffffffffffffffffffffffffffff1916145b806107ec57506107eb82611ad1565b5b9050919050565b606060018054610802906136ba565b80601f016020809104026020016040519081016040528092919081815260200182805461082e906136ba565b801561087b5780601f106108505761010080835404028352916020019161087b565b820191906000526020600020905b81548152906001019060200180831161085e57829003601f168201915b5050505050905090565b600061089082611b3b565b6108cf576040517f08c379a00000000000000000000000000000000000000000000000000000000081526004016108c69061375d565b60405180910390fd5b6005600083815260200190815260200160002060009054906101000a900473ffffffffffffffffffffffffffffffffffffffff169050919050565b6000610915826110a8565b90508073ffffffffffffffffffffffffffffffffffffffff168373ffffffffffffffffffffffffffffffffffffffff1603610985576040517f08c379a000000000000000000000000000000000000000000000000000000000815260040161097c906137ef565b60405180910390fd5b8073ffffffffffffffffffffffffffffffffffffffff166109a4611ba7565b73ffffffffffffffffffffffffffffffffffffffff1614806109d357506109d2816109cd611ba7565b611946565b5b610a12576040517f08c379a0000000000000000000000000000000000000000000000000000000008152600401610a0990613881565b60405180910390fd5b610a1c8383611baf565b505050565b600e543414610a2f57600080fd5b6001600c8281548110610a4557610a446138a1565b5b906000526020600020906003020160020160008282829054906101000a900463ffffffff16610a7491906138ff565b92506101000a81548163ffffffff021916908363ffffffff16021790555050565b6000600d60009054906101000a900473ffffffffffffffffffffffffffffffffffffffff1673ffffffffffffffffffffffffffffffffffffffff1663e98b7f4d836040518263ffffffff1660e01b8152600401610af291906132c6565b61014060405180830381865afa158015610b10573d6000803e3d6000fd5b505050506040513d601f19601f82011682018060405250810190610b349190613963565b90919293949596979850909192939495969750909192939495965090919293949550909192939450909192935090919250909150905080915050610bae83826040518060400160405280600581526020017f6b69747479000000000000000000000000000000000000000000000000000000815250611c68565b505050565b600c8181548110610bc357600080fd5b9060005260206000209060030201600091509050806000018054610be6906136ba565b80601f0160208091040260200160405190810160405280929190818152602001828054610c12906136ba565b8015610c5f5780601f10610c3457610100808354040283529160200191610c5f565b820191906000526020600020905b815481529060010190602001808311610c4257829003601f168201915b5050505050908060010154908060020160009054906101000a900463ffffffff16908060020160049054906101000a900463ffffffff16908060020160089054906101000a900461ffff169080600201600a9054906101000a900461ffff169080600201600c9054906101000a900461ffff16905087565b610ce8610ce2611ba7565b82611e20565b610d27576040517f08c379a0000000000000000000000000000000000000000000000000000000008152600401610d1e90613ab4565b60405180910390fd5b610d32838383611efe565b505050565b610d3f611ba7565b73ffffffffffffffffffffffffffffffffffffffff16610d5d61132d565b73ffffffffffffffffffffffffffffffffffffffff1614610db3576040517f08c379a0000000000000000000000000000000000000000000000000000000008152600401610daa90613b20565b60405180910390fd5b6000610dbd61132d565b90508073ffffffffffffffffffffffffffffffffffffffff166108fc479081150290604051600060405180830381858888f19350505050158015610e05573d6000803e3d6000fd5b5050565b610e248383836040518060200160405280600081525061140f565b505050565b60606000610e3683611159565b67ffffffffffffffff811115610e4f57610e4e6132eb565b5b604051908082528060200260200182016040528015610e7d5781602001602082028036833780820191505090505b5090506000805b600c80549050811015610f0e578473ffffffffffffffffffffffffffffffffffffffff16610eb1826110a8565b73ffffffffffffffffffffffffffffffffffffffff1603610efb5780838381518110610ee057610edf6138a1565b5b6020026020010181815250508180610ef790613b40565b9250505b8080610f0690613b40565b915050610e84565b508192505050919050565b6000610f24826110a8565b9050919050565b610f33611ba7565b73ffffffffffffffffffffffffffffffffffffffff16610f5161132d565b73ffffffffffffffffffffffffffffffffffffffff1614610fa7576040517f08c379a0000000000000000000000000000000000000000000000000000000008152600401610f9e90613b20565b60405180910390fd5b80600d60006101000a81548173ffffffffffffffffffffffffffffffffffffffff021916908373ffffffffffffffffffffffffffffffffffffffff16021790555050565b60148281600c8281548110611003576110026138a1565b5b906000526020600020906003020160020160009054906101000a900463ffffffff1663ffffffff16101561103657600080fd5b83611040816110a8565b73ffffffffffffffffffffffffffffffffffffffff163373ffffffffffffffffffffffffffffffffffffffff161461107757600080fd5b83600c868154811061108c5761108b6138a1565b5b9060005260206000209060030201600101819055505050505050565b6000806003600084815260200190815260200160002060009054906101000a900473ffffffffffffffffffffffffffffffffffffffff169050600073ffffffffffffffffffffffffffffffffffffffff168173ffffffffffffffffffffffffffffffffffffffff1603611150576040517f08c379a000000000000000000000000000000000000000000000000000000000815260040161114790613bfa565b60405180910390fd5b80915050919050565b60008073ffffffffffffffffffffffffffffffffffffffff168273ffffffffffffffffffffffffffffffffffffffff16036111c9576040517f08c379a00000000000000000000000000000000000000000000000000000000081526004016111c090613c8c565b60405180910390fd5b600460008373ffffffffffffffffffffffffffffffffffffffff1673ffffffffffffffffffffffffffffffffffffffff168152602001908152602001600020549050919050565b611218611ba7565b73ffffffffffffffffffffffffffffffffffffffff1661123661132d565b73ffffffffffffffffffffffffffffffffffffffff161461128c576040517f08c379a000000000000000000000000000000000000000000000000000000000815260040161128390613b20565b60405180910390fd5b6112966000612164565b565b6000806112a433611159565b146112e4576040517f08c379a00000000000000000000000000000000000000000000000000000000081526004016112db90613d1e565b60405180910390fd5b60006112ef83612228565b90506064816112fe9190613d6d565b816113099190613d9e565b905061132583826040518060200160405280600081525061226d565b915050919050565b60008060009054906101000a900473ffffffffffffffffffffffffffffffffffffffff16905090565b606060028054611365906136ba565b80601f0160208091040260200160405190810160405280929190818152602001828054611391906136ba565b80156113de5780601f106113b3576101008083540402835291602001916113de565b820191906000526020600020905b8154815290600101906020018083116113c157829003601f168201915b5050505050905090565b60006113f4600861244a565b905090565b61140b611404611ba7565b8383612458565b5050565b61142061141a611ba7565b83611e20565b61145f576040517f08c379a000000000000000000000000000000000000000000000000000000000815260040161145690613ab4565b60405180910390fd5b61146b848484846125c4565b50505050565b60028281600c8281548110611489576114886138a1565b5b906000526020600020906003020160020160009054906101000a900463ffffffff1663ffffffff1610156114bc57600080fd5b836114c6816110a8565b73ffffffffffffffffffffffffffffffffffffffff163373ffffffffffffffffffffffffffffffffffffffff16146114fd57600080fd5b83600c8681548110611512576115116138a1565b5b90600052602060002090600302016000019080519060200190611536929190612d0d565b505050505050565b606061154982611b3b565b611588576040517f08c379a000000000000000000000000000000000000000000000000000000000815260040161157f90613e44565b60405180910390fd5b60006007600084815260200190815260200160002080546115a8906136ba565b80601f01602080910402602001604051908101604052809291908181526020018280546115d4906136ba565b80156116215780601f106115f657610100808354040283529160200191611621565b820191906000526020600020905b81548152906001019060200180831161160457829003601f168201915b505050505090506000611632612620565b9050600081510361164757819250505061168a565b60008251111561167c578082604051602001611664929190613ea0565b6040516020818303038152906040529250505061168a565b61168584612637565b925050505b919050565b611697611ba7565b73ffffffffffffffffffffffffffffffffffffffff166116b561132d565b73ffffffffffffffffffffffffffffffffffffffff161461170b576040517f08c379a000000000000000000000000000000000000000000000000000000000815260040161170290613b20565b60405180910390fd5b80600e8190555050565b8161171f816110a8565b73ffffffffffffffffffffffffffffffffffffffff163373ffffffffffffffffffffffffffffffffffffffff161461175657600080fd5b6000600c848154811061176c5761176b6138a1565b5b906000526020600020906003020190506000600c8481548110611792576117916138a1565b5b9060005260206000209060030201905060006117ae60646126de565b905060105481116118bc5760018360020160088282829054906101000a900461ffff166117db9190613ec4565b92506101000a81548161ffff021916908361ffff16021790555060018360020160008282829054906101000a900463ffffffff1661181991906138ff565b92506101000a81548163ffffffff021916908363ffffffff160217905550600182600201600a8282829054906101000a900461ffff166118599190613ec4565b92506101000a81548161ffff021916908361ffff1602179055506118b78683600101546040518060400160405280600681526020017f7a6f6d6269650000000000000000000000000000000000000000000000000000815250611c68565b61193e565b600183600201600a8282829054906101000a900461ffff166118de9190613ec4565b92506101000a81548161ffff021916908361ffff16021790555060018260020160088282829054906101000a900461ffff1661191a9190613ec4565b92506101000a81548161ffff021916908361ffff16021790555061193d8361273c565b5b505050505050565b6000600660008473ffffffffffffffffffffffffffffffffffffffff1673ffffffffffffffffffffffffffffffffffffffff16815260200190815260200160002060008373ffffffffffffffffffffffffffffffffffffffff1673ffffffffffffffffffffffffffffffffffffffff16815260200190815260200160002060009054906101000a900460ff16905092915050565b6119e2611ba7565b73ffffffffffffffffffffffffffffffffffffffff16611a0061132d565b73ffffffffffffffffffffffffffffffffffffffff1614611a56576040517f08c379a0000000000000000000000000000000000000000000000000000000008152600401611a4d90613b20565b60405180910390fd5b600073ffffffffffffffffffffffffffffffffffffffff168173ffffffffffffffffffffffffffffffffffffffff1603611ac5576040517f08c379a0000000000000000000000000000000000000000000000000000000008152600401611abc90613f6e565b60405180910390fd5b611ace81612164565b50565b60007f01ffc9a7000000000000000000000000000000000000000000000000000000007bffffffffffffffffffffffffffffffffffffffffffffffffffffffff1916827bffffffffffffffffffffffffffffffffffffffffffffffffffffffff1916149050919050565b60008073ffffffffffffffffffffffffffffffffffffffff166003600084815260200190815260200160002060009054906101000a900473ffffffffffffffffffffffffffffffffffffffff1673ffffffffffffffffffffffffffffffffffffffff1614159050919050565b600033905090565b816005600083815260200190815260200160002060006101000a81548173ffffffffffffffffffffffffffffffffffffffff021916908373ffffffffffffffffffffffffffffffffffffffff160217905550808273ffffffffffffffffffffffffffffffffffffffff16611c22836110a8565b73ffffffffffffffffffffffffffffffffffffffff167f8c5be1e5ebec7d5bd14f71427d1e84f3dd0314c0f7b2291e5b200ac8c7c3b92560405160405180910390a45050565b82611c72816110a8565b73ffffffffffffffffffffffffffffffffffffffff163373ffffffffffffffffffffffffffffffffffffffff1614611ca957600080fd5b6000600c8581548110611cbf57611cbe6138a1565b5b90600052602060002090600302019050611cd88161276f565b611d17576040517f08c379a0000000000000000000000000000000000000000000000000000000008152600401611d0e90613fda565b60405180910390fd5b600a5484611d259190613d6d565b935060006002858360010154611d3b9190613ffa565b611d459190614050565b9050604051602001611d56906140cd565b6040516020818303038152906040528051906020012084604051602001611d7d91906140e2565b6040516020818303038152906040528051906020012003611dbf576063606482611da79190613d6d565b82611db29190613d9e565b611dbc9190613ffa565b90505b611e0e6040518060400160405280600681526020017f4e6f4e616d650000000000000000000000000000000000000000000000000000815250826040518060200160405280600081525061226d565b50611e188261273c565b505050505050565b6000611e2b82611b3b565b611e6a576040517f08c379a0000000000000000000000000000000000000000000000000000000008152600401611e619061416b565b60405180910390fd5b6000611e75836110a8565b90508073ffffffffffffffffffffffffffffffffffffffff168473ffffffffffffffffffffffffffffffffffffffff161480611ee457508373ffffffffffffffffffffffffffffffffffffffff16611ecc84610885565b73ffffffffffffffffffffffffffffffffffffffff16145b80611ef55750611ef48185611946565b5b91505092915050565b8273ffffffffffffffffffffffffffffffffffffffff16611f1e826110a8565b73ffffffffffffffffffffffffffffffffffffffff1614611f74576040517f08c379a0000000000000000000000000000000000000000000000000000000008152600401611f6b906141fd565b60405180910390fd5b600073ffffffffffffffffffffffffffffffffffffffff168273ffffffffffffffffffffffffffffffffffffffff1603611fe3576040517f08c379a0000000000000000000000000000000000000000000000000000000008152600401611fda9061428f565b60405180910390fd5b611fee838383612796565b611ff9600082611baf565b6001600460008573ffffffffffffffffffffffffffffffffffffffff1673ffffffffffffffffffffffffffffffffffffffff16815260200190815260200160002060008282546120499190613d9e565b925050819055506001600460008473ffffffffffffffffffffffffffffffffffffffff1673ffffffffffffffffffffffffffffffffffffffff16815260200190815260200160002060008282546120a09190613ffa565b92505081905550816003600083815260200190815260200160002060006101000a81548173ffffffffffffffffffffffffffffffffffffffff021916908373ffffffffffffffffffffffffffffffffffffffff160217905550808273ffffffffffffffffffffffffffffffffffffffff168473ffffffffffffffffffffffffffffffffffffffff167fddf252ad1be2c89b69c2b068fc378daa952ba7f163c4a11628f55a4df523b3ef60405160405180910390a461215f83838361279b565b505050565b60008060009054906101000a900473ffffffffffffffffffffffffffffffffffffffff169050816000806101000a81548173ffffffffffffffffffffffffffffffffffffffff021916908373ffffffffffffffffffffffffffffffffffffffff1602179055508173ffffffffffffffffffffffffffffffffffffffff168173ffffffffffffffffffffffffffffffffffffffff167f8be0079c531659141344cd1fd0a4f28419497f9722a3daafe3b4186f6b6457e060405160405180910390a35050565b6000808260405160200161223c91906140e2565b6040516020818303038152906040528051906020012060001c9050600a54816122659190613d6d565b915050919050565b6000600c6040518060e00160405280868152602001858152602001600163ffffffff168152602001600b54426122a39190613ffa565b63ffffffff168152602001600061ffff168152602001600061ffff168152602001600161ffff1681525090806001815401808255809150506001900390600052602060002090600302016000909190919091506000820151816000019080519060200190612312929190612d0d565b506020820151816001015560408201518160020160006101000a81548163ffffffff021916908363ffffffff16021790555060608201518160020160046101000a81548163ffffffff021916908363ffffffff16021790555060808201518160020160086101000a81548161ffff021916908361ffff16021790555060a082015181600201600a6101000a81548161ffff021916908361ffff16021790555060c082015181600201600c6101000a81548161ffff021916908361ffff160217905550505060006123e2600861244a565b90506123ee33826127a0565b6123f88184612979565b7f63d3bc6837c5eae42d382fe2dd55ee824a6fb1c24f0761c4864d38087a8caa058186863360405161242d94939291906142af565b60405180910390a161243f60086129ed565b809150509392505050565b600081600001549050919050565b8173ffffffffffffffffffffffffffffffffffffffff168373ffffffffffffffffffffffffffffffffffffffff16036124c6576040517f08c379a00000000000000000000000000000000000000000000000000000000081526004016124bd90614347565b60405180910390fd5b80600660008573ffffffffffffffffffffffffffffffffffffffff1673ffffffffffffffffffffffffffffffffffffffff16815260200190815260200160002060008473ffffffffffffffffffffffffffffffffffffffff1673ffffffffffffffffffffffffffffffffffffffff16815260200190815260200160002060006101000a81548160ff0219169083151502179055508173ffffffffffffffffffffffffffffffffffffffff168373ffffffffffffffffffffffffffffffffffffffff167f17307eab39ab6107e8899845ad3d59bd9653f200f220920489ca2b5937696c31836040516125b79190612e64565b60405180910390a3505050565b6125cf848484611efe565b6125db84848484612a03565b61261a576040517f08c379a0000000000000000000000000000000000000000000000000000000008152600401612611906143d9565b60405180910390fd5b50505050565b606060405180602001604052806000815250905090565b606061264282611b3b565b612681576040517f08c379a00000000000000000000000000000000000000000000000000000000081526004016126789061446b565b60405180910390fd5b600061268b612620565b905060008151116126ab57604051806020016040528060008152506126d6565b806126b584612b8a565b6040516020016126c6929190613ea0565b6040516020818303038152906040525b915050919050565b60006001600f60008282546126f39190613ffa565b92505081905550814233600f54604051602001612712939291906144f4565b6040516020818303038152906040528051906020012060001c6127359190613d6d565b9050919050565b600b544261274a9190613ffa565b8160020160046101000a81548163ffffffff021916908363ffffffff16021790555050565b6000428260020160049054906101000a900463ffffffff1663ffffffff1611159050919050565b505050565b505050565b600073ffffffffffffffffffffffffffffffffffffffff168273ffffffffffffffffffffffffffffffffffffffff160361280f576040517f08c379a00000000000000000000000000000000000000000000000000000000081526004016128069061457d565b60405180910390fd5b61281881611b3b565b15612858576040517f08c379a000000000000000000000000000000000000000000000000000000000815260040161284f906145e9565b60405180910390fd5b61286460008383612796565b6001600460008473ffffffffffffffffffffffffffffffffffffffff1673ffffffffffffffffffffffffffffffffffffffff16815260200190815260200160002060008282546128b49190613ffa565b92505081905550816003600083815260200190815260200160002060006101000a81548173ffffffffffffffffffffffffffffffffffffffff021916908373ffffffffffffffffffffffffffffffffffffffff160217905550808273ffffffffffffffffffffffffffffffffffffffff16600073ffffffffffffffffffffffffffffffffffffffff167fddf252ad1be2c89b69c2b068fc378daa952ba7f163c4a11628f55a4df523b3ef60405160405180910390a46129756000838361279b565b5050565b61298282611b3b565b6129c1576040517f08c379a00000000000000000000000000000000000000000000000000000000081526004016129b89061467b565b60405180910390fd5b806007600084815260200190815260200160002090805190602001906129e8929190612d0d565b505050565b6001816000016000828254019250508190555050565b6000612a248473ffffffffffffffffffffffffffffffffffffffff16612cea565b15612b7d578373ffffffffffffffffffffffffffffffffffffffff1663150b7a02612a4d611ba7565b8786866040518563ffffffff1660e01b8152600401612a6f94939291906146f0565b6020604051808303816000875af1925050508015612aab57506040513d601f19601f82011682018060405250810190612aa89190614751565b60015b612b2d573d8060008114612adb576040519150601f19603f3d011682016040523d82523d6000602084013e612ae0565b606091505b506000815103612b25576040517f08c379a0000000000000000000000000000000000000000000000000000000008152600401612b1c906143d9565b60405180910390fd5b805181602001fd5b63150b7a0260e01b7bffffffffffffffffffffffffffffffffffffffffffffffffffffffff1916817bffffffffffffffffffffffffffffffffffffffffffffffffffffffff191614915050612b82565b600190505b949350505050565b606060008203612bd1576040518060400160405280600181526020017f30000000000000000000000000000000000000000000000000000000000000008152509050612ce5565b600082905060005b60008214612c03578080612bec90613b40565b915050600a82612bfc9190614050565b9150612bd9565b60008167ffffffffffffffff811115612c1f57612c1e6132eb565b5b6040519080825280601f01601f191660200182016040528015612c515781602001600182028036833780820191505090505b5090505b60008514612cde57600182612c6a9190613d9e565b9150600a85612c799190613d6d565b6030612c859190613ffa565b60f81b818381518110612c9b57612c9a6138a1565b5b60200101907effffffffffffffffffffffffffffffffffffffffffffffffffffffffffffff1916908160001a905350600a85612cd79190614050565b9450612c55565b8093505050505b919050565b6000808273ffffffffffffffffffffffffffffffffffffffff163b119050919050565b828054612d19906136ba565b90600052602060002090601f016020900481019282612d3b5760008555612d82565b82601f10612d5457805160ff1916838001178555612d82565b82800160010185558215612d82579182015b82811115612d81578251825591602001919060010190612d66565b5b509050612d8f9190612d93565b5090565b5b80821115612dac576000816000905550600101612d94565b5090565b6000604051905090565b600080fd5b600080fd5b60007fffffffff0000000000000000000000000000000000000000000000000000000082169050919050565b612df981612dc4565b8114612e0457600080fd5b50565b600081359050612e1681612df0565b92915050565b600060208284031215612e3257612e31612dba565b5b6000612e4084828501612e07565b91505092915050565b60008115159050919050565b612e5e81612e49565b82525050565b6000602082019050612e796000830184612e55565b92915050565b600081519050919050565b600082825260208201905092915050565b60005b83811015612eb9578082015181840152602081019050612e9e565b83811115612ec8576000848401525b50505050565b6000601f19601f8301169050919050565b6000612eea82612e7f565b612ef48185612e8a565b9350612f04818560208601612e9b565b612f0d81612ece565b840191505092915050565b60006020820190508181036000830152612f328184612edf565b905092915050565b6000819050919050565b612f4d81612f3a565b8114612f5857600080fd5b50565b600081359050612f6a81612f44565b92915050565b600060208284031215612f8657612f85612dba565b5b6000612f9484828501612f5b565b91505092915050565b600073ffffffffffffffffffffffffffffffffffffffff82169050919050565b6000612fc882612f9d565b9050919050565b612fd881612fbd565b82525050565b6000602082019050612ff36000830184612fcf565b92915050565b61300281612fbd565b811461300d57600080fd5b50565b60008135905061301f81612ff9565b92915050565b6000806040838503121561303c5761303b612dba565b5b600061304a85828601613010565b925050602061305b85828601612f5b565b9150509250929050565b6000806040838503121561307c5761307b612dba565b5b600061308a85828601612f5b565b925050602061309b85828601612f5b565b9150509250929050565b6130ae81612f3a565b82525050565b600063ffffffff82169050919050565b6130cd816130b4565b82525050565b600061ffff82169050919050565b6130ea816130d3565b82525050565b600060e082019050818103600083015261310a818a612edf565b905061311960208301896130a5565b61312660408301886130c4565b61313360608301876130c4565b61314060808301866130e1565b61314d60a08301856130e1565b61315a60c08301846130e1565b98975050505050505050565b60008060006060848603121561317f5761317e612dba565b5b600061318d86828701613010565b935050602061319e86828701613010565b92505060406131af86828701612f5b565b9150509250925092565b6000602082840312156131cf576131ce612dba565b5b60006131dd84828501613010565b91505092915050565b600081519050919050565b600082825260208201905092915050565b6000819050602082019050919050565b61321b81612f3a565b82525050565b600061322d8383613212565b60208301905092915050565b6000602082019050919050565b6000613251826131e6565b61325b81856131f1565b935061326683613202565b8060005b8381101561329757815161327e8882613221565b975061328983613239565b92505060018101905061326a565b5085935050505092915050565b600060208201905081810360008301526132be8184613246565b905092915050565b60006020820190506132db60008301846130a5565b92915050565b600080fd5b600080fd5b7f4e487b7100000000000000000000000000000000000000000000000000000000600052604160045260246000fd5b61332382612ece565b810181811067ffffffffffffffff82111715613342576133416132eb565b5b80604052505050565b6000613355612db0565b9050613361828261331a565b919050565b600067ffffffffffffffff821115613381576133806132eb565b5b61338a82612ece565b9050602081019050919050565b82818337600083830152505050565b60006133b96133b484613366565b61334b565b9050828152602081018484840111156133d5576133d46132e6565b5b6133e0848285613397565b509392505050565b600082601f8301126133fd576133fc6132e1565b5b813561340d8482602086016133a6565b91505092915050565b60006020828403121561342c5761342b612dba565b5b600082013567ffffffffffffffff81111561344a57613449612dbf565b5b613456848285016133e8565b91505092915050565b61346881612e49565b811461347357600080fd5b50565b6000813590506134858161345f565b92915050565b600080604083850312156134a2576134a1612dba565b5b60006134b085828601613010565b92505060206134c185828601613476565b9150509250929050565b600067ffffffffffffffff8211156134e6576134e56132eb565b5b6134ef82612ece565b9050602081019050919050565b600061350f61350a846134cb565b61334b565b90508281526020810184848401111561352b5761352a6132e6565b5b613536848285613397565b509392505050565b600082601f830112613553576135526132e1565b5b81356135638482602086016134fc565b91505092915050565b6000806000806080858703121561358657613585612dba565b5b600061359487828801613010565b94505060206135a587828801613010565b93505060406135b687828801612f5b565b925050606085013567ffffffffffffffff8111156135d7576135d6612dbf565b5b6135e38782880161353e565b91505092959194509250565b6000806040838503121561360657613605612dba565b5b600061361485828601612f5b565b925050602083013567ffffffffffffffff81111561363557613634612dbf565b5b613641858286016133e8565b9150509250929050565b6000806040838503121561366257613661612dba565b5b600061367085828601613010565b925050602061368185828601613010565b9150509250929050565b7f4e487b7100000000000000000000000000000000000000000000000000000000600052602260045260246000fd5b600060028204905060018216806136d257607f821691505b6020821081036136e5576136e461368b565b5b50919050565b7f4552433732313a20617070726f76656420717565727920666f72206e6f6e657860008201527f697374656e7420746f6b656e0000000000000000000000000000000000000000602082015250565b6000613747602c83612e8a565b9150613752826136eb565b604082019050919050565b600060208201905081810360008301526137768161373a565b9050919050565b7f4552433732313a20617070726f76616c20746f2063757272656e74206f776e6560008201527f7200000000000000000000000000000000000000000000000000000000000000602082015250565b60006137d9602183612e8a565b91506137e48261377d565b604082019050919050565b60006020820190508181036000830152613808816137cc565b9050919050565b7f4552433732313a20617070726f76652063616c6c6572206973206e6f74206f7760008201527f6e6572206e6f7220617070726f76656420666f7220616c6c0000000000000000602082015250565b600061386b603883612e8a565b91506138768261380f565b604082019050919050565b6000602082019050818103600083015261389a8161385e565b9050919050565b7f4e487b7100000000000000000000000000000000000000000000000000000000600052603260045260246000fd5b7f4e487b7100000000000000000000000000000000000000000000000000000000600052601160045260246000fd5b600061390a826130b4565b9150613915836130b4565b92508263ffffffff0382111561392e5761392d6138d0565b5b828201905092915050565b6000815190506139488161345f565b92915050565b60008151905061395d81612f44565b92915050565b6000806000806000806000806000806101408b8d03121561398757613986612dba565b5b60006139958d828e01613939565b9a505060206139a68d828e01613939565b99505060406139b78d828e0161394e565b98505060606139c88d828e0161394e565b97505060806139d98d828e0161394e565b96505060a06139ea8d828e0161394e565b95505060c06139fb8d828e0161394e565b94505060e0613a0c8d828e0161394e565b935050610100613a1e8d828e0161394e565b925050610120613a308d828e0161394e565b9150509295989b9194979a5092959850565b7f4552433732313a207472616e736665722063616c6c6572206973206e6f74206f60008201527f776e6572206e6f7220617070726f766564000000000000000000000000000000602082015250565b6000613a9e603183612e8a565b9150613aa982613a42565b604082019050919050565b60006020820190508181036000830152613acd81613a91565b9050919050565b7f4f776e61626c653a2063616c6c6572206973206e6f7420746865206f776e6572600082015250565b6000613b0a602083612e8a565b9150613b1582613ad4565b602082019050919050565b60006020820190508181036000830152613b3981613afd565b9050919050565b6000613b4b82612f3a565b91507fffffffffffffffffffffffffffffffffffffffffffffffffffffffffffffffff8203613b7d57613b7c6138d0565b5b600182019050919050565b7f4552433732313a206f776e657220717565727920666f72206e6f6e657869737460008201527f656e7420746f6b656e0000000000000000000000000000000000000000000000602082015250565b6000613be4602983612e8a565b9150613bef82613b88565b604082019050919050565b60006020820190508181036000830152613c1381613bd7565b9050919050565b7f4552433732313a2062616c616e636520717565727920666f7220746865207a6560008201527f726f206164647265737300000000000000000000000000000000000000000000602082015250565b6000613c76602a83612e8a565b9150613c8182613c1a565b604082019050919050565b60006020820190508181036000830152613ca581613c69565b9050919050565b7f65766572796f6e65206a7573742063616e206372656174652061207a6f6d626960008201527f652e000000000000000000000000000000000000000000000000000000000000602082015250565b6000613d08602283612e8a565b9150613d1382613cac565b604082019050919050565b60006020820190508181036000830152613d3781613cfb565b9050919050565b7f4e487b7100000000000000000000000000000000000000000000000000000000600052601260045260246000fd5b6000613d7882612f3a565b9150613d8383612f3a565b925082613d9357613d92613d3e565b5b828206905092915050565b6000613da982612f3a565b9150613db483612f3a565b925082821015613dc757613dc66138d0565b5b828203905092915050565b7f45524337323155524953746f726167653a2055524920717565727920666f722060008201527f6e6f6e6578697374656e7420746f6b656e000000000000000000000000000000602082015250565b6000613e2e603183612e8a565b9150613e3982613dd2565b604082019050919050565b60006020820190508181036000830152613e5d81613e21565b9050919050565b600081905092915050565b6000613e7a82612e7f565b613e848185613e64565b9350613e94818560208601612e9b565b80840191505092915050565b6000613eac8285613e6f565b9150613eb88284613e6f565b91508190509392505050565b6000613ecf826130d3565b9150613eda836130d3565b92508261ffff03821115613ef157613ef06138d0565b5b828201905092915050565b7f4f776e61626c653a206e6577206f776e657220697320746865207a65726f206160008201527f6464726573730000000000000000000000000000000000000000000000000000602082015250565b6000613f58602683612e8a565b9150613f6382613efc565b604082019050919050565b60006020820190508181036000830152613f8781613f4b565b9050919050565b7f796f7572207a6f6d626965206973206e6f742072656164792077656c6c2e0000600082015250565b6000613fc4601e83612e8a565b9150613fcf82613f8e565b602082019050919050565b60006020820190508181036000830152613ff381613fb7565b9050919050565b600061400582612f3a565b915061401083612f3a565b9250827fffffffffffffffffffffffffffffffffffffffffffffffffffffffffffffffff03821115614045576140446138d0565b5b828201905092915050565b600061405b82612f3a565b915061406683612f3a565b92508261407657614075613d3e565b5b828204905092915050565b7f6b69747479000000000000000000000000000000000000000000000000000000600082015250565b60006140b7600583613e64565b91506140c282614081565b600582019050919050565b60006140d8826140aa565b9150819050919050565b60006140ee8284613e6f565b915081905092915050565b7f4552433732313a206f70657261746f7220717565727920666f72206e6f6e657860008201527f697374656e7420746f6b656e0000000000000000000000000000000000000000602082015250565b6000614155602c83612e8a565b9150614160826140f9565b604082019050919050565b6000602082019050818103600083015261418481614148565b9050919050565b7f4552433732313a207472616e736665722066726f6d20696e636f72726563742060008201527f6f776e6572000000000000000000000000000000000000000000000000000000602082015250565b60006141e7602583612e8a565b91506141f28261418b565b604082019050919050565b60006020820190508181036000830152614216816141da565b9050919050565b7f4552433732313a207472616e7366657220746f20746865207a65726f2061646460008201527f7265737300000000000000000000000000000000000000000000000000000000602082015250565b6000614279602483612e8a565b91506142848261421d565b604082019050919050565b600060208201905081810360008301526142a88161426c565b9050919050565b60006080820190506142c460008301876130a5565b81810360208301526142d68186612edf565b90506142e560408301856130a5565b6142f26060830184612fcf565b95945050505050565b7f4552433732313a20617070726f766520746f2063616c6c657200000000000000600082015250565b6000614331601983612e8a565b915061433c826142fb565b602082019050919050565b6000602082019050818103600083015261436081614324565b9050919050565b7f4552433732313a207472616e7366657220746f206e6f6e20455243373231526560008201527f63656976657220696d706c656d656e7465720000000000000000000000000000602082015250565b60006143c3603283612e8a565b91506143ce82614367565b604082019050919050565b600060208201905081810360008301526143f2816143b6565b9050919050565b7f4552433732314d657461646174613a2055524920717565727920666f72206e6f60008201527f6e6578697374656e7420746f6b656e0000000000000000000000000000000000602082015250565b6000614455602f83612e8a565b9150614460826143f9565b604082019050919050565b6000602082019050818103600083015261448481614448565b9050919050565b6000819050919050565b6144a66144a182612f3a565b61448b565b82525050565b60008160601b9050919050565b60006144c4826144ac565b9050919050565b60006144d6826144b9565b9050919050565b6144ee6144e982612fbd565b6144cb565b82525050565b60006145008286614495565b60208201915061451082856144dd565b6014820191506145208284614495565b602082019150819050949350505050565b7f4552433732313a206d696e7420746f20746865207a65726f2061646472657373600082015250565b6000614567602083612e8a565b915061457282614531565b602082019050919050565b600060208201905081810360008301526145968161455a565b9050919050565b7f4552433732313a20746f6b656e20616c7265616479206d696e74656400000000600082015250565b60006145d3601c83612e8a565b91506145de8261459d565b602082019050919050565b60006020820190508181036000830152614602816145c6565b9050919050565b7f45524337323155524953746f726167653a2055524920736574206f66206e6f6e60008201527f6578697374656e7420746f6b656e000000000000000000000000000000000000602082015250565b6000614665602e83612e8a565b915061467082614609565b604082019050919050565b6000602082019050818103600083015261469481614658565b9050919050565b600081519050919050565b600082825260208201905092915050565b60006146c28261469b565b6146cc81856146a6565b93506146dc818560208601612e9b565b6146e581612ece565b840191505092915050565b60006080820190506147056000830187612fcf565b6147126020830186612fcf565b61471f60408301856130a5565b818103606083015261473181846146b7565b905095945050505050565b60008151905061474b81612df0565b92915050565b60006020828403121561476757614766612dba565b5b60006147758482850161473c565b9150509291505056fea2646970667358221220ba23e7631c8b73b2fa46f7b0a0929d4f4a23e7b18821e77bdff73109ddc498fc64736f6c634300080d0033",
  "immutableReferences": {},
  "source": "// SPDX-License-Identifier: MIT\npragma solidity ^0.8.13;\n\nimport \"./ZombieAttack.sol\";\n\ncontract CryptoZombies is ZombieAttack {}\n",
  "sourcePath": "/Users/huangjiangbo.z/Documents/project/myzombies/contracts/CryptoZombies.sol",
  "compiler": {
    "name": "solc",
    "version": "0.8.13+commit.abaa5c0e.Emscripten.clang"
  },
  "schemaVersion": "3.4.6",
  "updatedAt": "2022-03-27T13:12:42.721Z",
  "networkType": "ethereum",
  "devdoc": {
    "kind": "dev",
    "methods": {
      "approve(address,uint256)": {
        "details": "See {IERC721-approve}."
      },
      "balanceOf(address)": {
        "details": "See {IERC721-balanceOf}."
      },
      "getApproved(uint256)": {
        "details": "See {IERC721-getApproved}."
      },
      "isApprovedForAll(address,address)": {
        "details": "See {IERC721-isApprovedForAll}."
      },
      "name()": {
        "details": "See {IERC721Metadata-name}."
      },
      "owner()": {
        "details": "Returns the address of the current owner."
      },
      "ownerOf(uint256)": {
        "details": "See {IERC721-ownerOf}."
      },
      "renounceOwnership()": {
        "details": "Leaves the contract without owner. It will not be possible to call `onlyOwner` functions anymore. Can only be called by the current owner. NOTE: Renouncing ownership will leave the contract without an owner, thereby removing any functionality that is only available to the owner."
      },
      "safeTransferFrom(address,address,uint256)": {
        "details": "See {IERC721-safeTransferFrom}."
      },
      "safeTransferFrom(address,address,uint256,bytes)": {
        "details": "See {IERC721-safeTransferFrom}."
      },
      "setApprovalForAll(address,bool)": {
        "details": "See {IERC721-setApprovalForAll}."
      },
      "supportsInterface(bytes4)": {
        "details": "See {IERC165-supportsInterface}."
      },
      "symbol()": {
        "details": "See {IERC721Metadata-symbol}."
      },
      "tokenURI(uint256)": {
        "details": "See {IERC721Metadata-tokenURI}."
      },
      "transferFrom(address,address,uint256)": {
        "details": "See {IERC721-transferFrom}."
      },
      "transferOwnership(address)": {
        "details": "Transfers ownership of the contract to a new account (`newOwner`). Can only be called by the current owner."
      }
    },
    "version": 1
  },
  "userdoc": {
    "kind": "user",
    "methods": {},
    "version": 1
  }
}